:100000000C94DF020C94630B0C943C0B0C940703D0
:100010000C9407030C9407030C9415140C94070319
:100020000C9407030C9407030C9407030C94070328
:100030000C9407030C9407030C9407030C94070318
:100040000C94F20A0C9407030C94B00B0C948A0BDA
:100050000C9407030C9407030C9407030C940703F8
:100060000C94E20B0C94070300407A10F35A00A0A2
:10007000724E18090010A5D4E80000E87648170071
:1000800000E40B54020000CA9A3B000000E1F505B1
:10009000000080969800000040420F000000A086FB
:1000A00001000000102700000000E803000000002D
:1000B0006400000000000A000000000001000000D1
:1000C00000002C76D888DC674F0823DFC1DFAE59EB
:1000D000E1B1B796E5E3E453C63AE651997696E87E
:1000E000E6C28426EB898C9B62ED407C6FFCEFBC02
:1000F0009C9F40F2BAA56FA5F490055A2AF75C932D
:100100006B6CF9676DC11BFCE0E40D47FEF520E662
:10011000B500D0ED902E0300943577050080841E45
:10012000080000204E0A000000C80C333333330FA0
:10013000986E12831141EF8D2114893BE65516CF3D
:10014000FEE6DB18D1844B381BF77C1D901DA4BB49
:10015000E424203284725E228100C9F124ECA1E5FE
:100160003D274D434F3A50494D3A4E4F444520525A
:1001700045473D25640A00215453463A4D53473ABA
:1001800052454C204D53472C4E5245500A00545373
:10019000463A4D53473A42430A005453463A4D5368
:1001A000473A41434B0A00215453463A4D53473A8C
:1001B000504F4E4720524543562C494E41435449D7
:1001C00056450A005453463A4D53473A504F4E470E
:1001D00020524543562C48503D25640A005453464E
:1001E0003A4D53473A50494E4745442C49443D25E2
:1001F000642C48503D25640A00215453463A4D531F
:10020000473A4650415220494E4143544956450AC7
:10021000005453463A4D53473A46504152204F4BB3
:100220002C49443D25642C443D25640A0054534622
:100230003A4D53473A41434B205245510A0021540D
:1002400053463A4D53473A505645522C25643D2566
:10025000640A00215453463A4D53473A4C454E2CBC
:100260002564213D25640A005453463A4D53473ACC
:10027000524541442C25642D25642D25642C733D65
:1002800025642C633D25642C743D25642C70743DDD
:1002900025642C6C3D25642C73673D25643A2573D9
:1002A0000A005453463A5349443A4F4B2C49443D73
:1002B00025640A00215453463A5349443A46414979
:1002C0004C2C49443D25640A0025735453463A4D4D
:1002D00053473A53454E442C25642D25642D2564FF
:1002E0002D25642C733D25642C633D25642C743DC1
:1002F00025642C70743D25642C6C3D25642C73673B
:100300003D25642C66743D25642C73743D25733A39
:1003100025730A00215453463A5254453A465041F7
:1003200052204143544956450A00215453463A53FA
:100330004E443A544E520A000000000025002800A6
:100340002B0000000000240027002A0004040404FD
:10035000040404040202020202020303030303036F
:10036000010204081020408001020408102001024C
:10037000040810204D434F3A5245473A5245510A1E
:10038000005453463A5755523A4D533D256C750A21
:10039000004D434F3A42474E3A494E4954204F4B45
:1003A0002C5453503D25640A004D434F3A42474E6A
:1003B0003A5354500A004D434F3A42474E3A424650
:1003C000520A004D434F3A42474E3A494E49542053
:1003D0004E4F44452C43503D524E4E4E412D2D2CF8
:1003E0005645523D322E312E310A00214D434F3AAF
:1003F000534E443A4E4F4445204E4F5420524547A9
:100400000A004D434F3A534C503A5755503D2564DE
:100410000A004D434F3A534C503A5450440A004D51
:10042000434F3A534C503A4D533D256C750A0021C9
:100430004D434F3A534C503A544E520A004D434F9D
:100440003A534C503A4D533D256C752C534D533D0A
:1004500025642C49313D25642C4D313D25642C49C2
:10046000323D25642C4D323D25640A0054534D3AEB
:10047000494E49540A000000000800020100000330
:10048000040700000000000000002154534D3A49C9
:100490004E49543A545350204641494C0A00545353
:1004A0004D3A494E49543A545350204F4B0A005448
:1004B000534D3A465041520A002154534D3A46504A
:1004C00041523A4E4F205245504C590A0021545344
:1004D0004D3A465041523A4641494C0A0054534D18
:1004E0003A465041523A4F4B0A0054534D3A494410
:1004F0003A5245510A0054534D3A49440A00215496
:10050000534D3A49443A4641494C0A0054534D3AF6
:1005100049443A4F4B0A0054534D3A55504C0A0047
:100520002154534D3A55504C3A4641494C0A0054D7
:10053000534D3A55504C3A444757432C4F3D256450
:100540002C4E3D25640A0054534D3A55504C3A4FB9
:100550004B0A0054534D3A52454144593A49443D9F
:1005600025642C5041523D25642C4449533D25645B
:100570000A002154534D3A52454144593A55504C82
:10058000204641494C2C534E500A0054534D3A4694
:1005900041494C3A5044540A0054534D3A4641495B
:1005A0004C3A434E543D25640A0054534D3A46415B
:1005B000494C3A52452D494E49540A001F14112402
:1005C0001FBECFEFD8E0DEBFCDBF11E0A0E0B1E0AD
:1005D000E2EAF8E302C005900D92A037B107D9F71F
:1005E00023E0A0E7B1E001C01D92A234B207E1F719
:1005F00012E0CFEDD2E004C02197FE010E94351C2D
:10060000CE3DD107C9F70E947E140C944F1C0C9468
:10061000000091E59CBD91E09DBD2A98E3E2F0E0E9
:100620003197F1F78EBD00000DB407FEFDCF8EB5FA
:10063000FB019FEF4150C8F0222361F09EBD0000F6
:100640000DB407FEFDCF8EB56115710599F380835A
:100650003196F0CFDF01119680818EBD00000DB480
:1006600007FEFDCF8EB5FD01E5CF2A9AE3E2F0E06B
:100670003197F1F70895AF92BF92CF92DF92EF9248
:10068000FF920F931F93CF93DF93EC018A81909198
:10069000380390FF0CC08F3F79F084E193E09F9383
:1006A0008F930E9458100F900F9010E0D0C08F3F92
:1006B00019F00091C60101C00FEF8091C501888338
:1006C0004B8142FD06C046954695469517E0140FAE
:1006D00001C010E280E090E0892B21F080E090E002
:1006E0000E940000299883E092E00197F1F76EE004
:1006F00080E20E94280E8BE891E00197F1F7602FCD
:100700008AE20E94280E602F80E30E94280E81EE6C
:100710000E9413100F3F11F080EA01C080EB412FBF
:10072000113208F040E220E0BE010E940903299A3C
:10073000E12CF12C8FEF0E941310182F807321F4FD
:1007400081E0E81AF108B1F7299860E387E20E9496
:10075000280E14FF03C081EE0E9413100E940610A1
:1007600015FB112710F981E00F3F09F080E0182BED
:10077000CE010E94B409111103C0ECE4F1E002C003
:10078000E9E4F1E0609139036F702B8122FBAA2428
:10079000A0F8322F3695369536952C81B22EB2942C
:1007A000B69447E0B422CD802770DE80EA80A02F87
:1007B000B0E0F8807981111103C041E551E002C039
:1007C0004FE651E09F938F93FF93EF931F926F93A8
:1007D0001F92AF921F923F931F92BF921F92CF9290
:1007E0001F922F931F92DF921F92EF92BF93AF93AE
:1007F0001F92FF921F927F935F934F9389EC92E039
:100800009F938F930E9458108DB79EB74E960FB648
:10081000F8949EBF0FBE8DBF8091C601081317C00C
:10082000111110C080E090E0892B21F085E690E066
:100830000E9400008091390391E0980F9F70807FA3
:10084000892B03C080913903807F80933903812FE6
:10085000DF91CF911F910F91FF90EF90DF90CF909C
:10086000BF90AF9008952091380322FD0C943B0374
:100870008AE293E09F938F930E9458100F900F90FD
:1008800080E00895CF93C82F8FEF8C0F8E3F08F52F
:10089000C093C501C093040163E082E20E94280E68
:1008A00061E081E20E94280E0E9406106C2F80E019
:1008B00090E00E94CA1B1F92CF9382EA92E09F931E
:1008C0008F930E9458100F900F900F900F9081E01F
:1008D00018C01F92CF9384EB92E09F938F930E9456
:1008E00058100F900F900F900F9080E090E0892BA0
:1008F00021F08EE690E00E9400008FEF8093C5010A
:1009000080E0CF9108952F923F924F925F926F9225
:100910007F928F929F92AF92BF92CF92DF92EF928F
:10092000FF920F931F93CF93DF93CDB7DEB72C9732
:100930000FB6F894DEBF0FBECDBFE0912E03F0914D
:100940002F030280F381E02D309709F00995809103
:10095000380384FB222720F9298784FF59C386E0C6
:10096000D82E90E0E92E90E0F92E9E012F5F3F4FA8
:100970003C832B8320EA822E26E8922EAA24A3947D
:10098000B12C34EB432E3BE2532E31E1632E712C1C
:1009900021E041E060E070E087E10E94090380FD12
:1009A00037C3DA94DD2009F433C3E114F10421F0F4
:1009B00081E090E00E94000021E041E060E070E012
:1009C00080E60E940903C82E30E2381720F482EE38
:1009D0000E941310C12C21E04C2D67EA72E081E6E1
:1009E0000E94090360E487E20E94280E8091AA0217
:1009F000282F2695269526952A3108F029E182FD93
:100A000003C077E0720F01C070E28091AB02877083
:100A10008D831091AC020091A8022090A702309023
:100A2000A90287EA92E02A877C870E94B4092A8576
:100A3000422F50E09F938F938091AA0282FB8827D8
:100A400080F91F928F931F922F938091AB02829512
:100A5000869587701F928F931F921F931F922D81EF
:100A60002F938091AD021F928F931F923F921F92FE
:100A70002F921F920F93A8E6B2E0BF93AF934A87DD
:100A80005B870E9458100FB6F894DEBF0FBECDBF33
:100A90007C854A855B85C71679F0E114F10429F05D
:100AA0008CE690E00E9400007C851F927F931F924D
:100AB000CF9283E592E017C02091AA02822F837023
:100AC0008230E1F0E114F10421F08DE690E00E9423
:100AD00000001F9282E08F938091AA0283701F9280
:100AE0008F938EE392E09F938F930E9458100F9004
:100AF0000F900F900F900F900F904ACF8091390375
:100B00008068809339038091C501381259C0822FC3
:100B10008695869586958A3108F089E138E0839F2D
:100B2000C00111242770822B8093AA02FA01E95593
:100B3000FD4F17828091AB0283FF21C08DE292E0CE
:100B40009F938F930E94581081E2E7EAF2E0A6E8B3
:100B5000B2E001900D928A95E1F780918A02877F39
:100B6000806180938A028091C501809387020093FF
:100B7000880286E892E00E9433040F900F909091D3
:100B8000AB0294FD0BC02D81233081F48091AC0227
:100B900021EF280F233008F055C0FACEAAE9B1E0C2
:100BA000BF93AF930E9458100F900F9020E030E059
:100BB000232B09F4EDCE87EA92E00E940000E8CEF4
:100BC0003FEF331236C0AEE8B1E0BF93AF930E945F
:100BD00058100F900F902D81233031F580913803FC
:100BE00082FF03C0173009F4D3CE183009F4D0CEF9
:100BF000143109F0CDCE8091C6012812C9CE0E94D1
:100C0000B00A7370882799270E94760A1091C6014E
:100C100025E143E06FEF802F0E948609612F0E943B
:100C2000430D0E943B03B4CE8091C6012812B0CE82
:100C3000BDCFA7E7B1E0BF93AF930E9458100F90CC
:100C40000F90A6CE143029F40E94510A0E9442044B
:100C50009FCE183011F51091380310FF1BC00E9471
:100C6000510A8F3F09F494CE8F5F8F3F09F490CEE5
:100C70009091C701891708F08BCE11FD89CE809322
:100C8000C7010093C6011F928F931F920F9381E1BA
:100C900092E029CF89EF91E030C01831C1F40E9471
:100CA000510A1F928F931F920F938DED91E09F93A6
:100CB0008F930E94581029E143E06FEF802F0E942C
:100CC000860961E00E94430D0E943B0310CF193159
:100CD000B9F48091380383FF0EC0877F8093380377
:100CE0000E94510A80933A031F928F9384EC91E003
:100CF0009F938F933CC087EA91E09F938F939DCF02
:100D00002091A802211180C18D3099F480E090E0FB
:100D1000892B21F08BE090E00E94000098E088E1B0
:100D20000FB6F894A895809360000FBE9093600072
:100D3000FFCF8B3119F50E94510A91E0811101C05A
:100D400090E080912D0390FB80F980932D03E114B6
:100D5000F10421F08AE090E00E94000080912D03D0
:100D600081701F928F93A2E6B1E0BF93AF930E9470
:100D700058100F900F900F900F900ACE8630A9F464
:100D80009091AE02992329F081E09D3419F080E022
:100D900001C0898580932C0341E050E063E071E05D
:100DA0008CE293E00E94BA1BF3CD833119F40E94C8
:100DB000A80DEECD8231F1F40E9419106D837E836F
:100DC0008F83988726E143E06FEF80E00E948609D9
:100DD000FC0184818F71806A848383818770806243
:100DE00083838D819E81AF81B88587839087A1871A
:100DF000B287DAC0813001F5A0E0B0E0AB2B09F496
:100E0000C7CD929596959770953049F46091AE0252
:100E10007091AF028091B0029091B1020AC091111D
:100E200005C08EEA92E00E94B31503C060E070E056
:100E3000CB010E940000ACCD8A3009F4A9CD8C31E1
:100E400009F0B4CE8091AE02823509F4A1CD863589
:100E5000B1F58EE480937C0066E470E080E090E081
:100E60000E94760A80917A00806480937A00809153
:100E70007A0086FDFCCF20907800309079002CE13C
:100E800043E06FEF80E00E9486098C01FC018481C1
:100E90008F718066848383818770806183839101F1
:100EA00040E050E0C301B2010E94131CD801189623
:100EB0003C932E931797C8010E94330469CD863462
:100EC00009F052C0F8948FEF86BB10928500109203
:100ED00084001092800010928200909160002DE0BA
:100EE00088E10FB6F894A895809360000FBE209318
:100EF000600080916000806480936000A89585E028
:100F0000809381008091600087FFFCCF1092810068
:100F1000A895809160008861809360009093600044
:100F2000789420908400309085002CE143E06FEFAE
:100F300080E00E9486098C01FC0184818F718066AB
:100F400084838381877080618383C101A0E0B0E0E6
:100F5000BC01CD014BE0660F771F881F991F4A9592
:100F6000D1F7A5019401A0CF8D3401F500913E0386
:100F700010913F030115110511F402E413E02CE177
:100F800043E06FEF80E00E948609FC0184818F714D
:100F90008066848383818770806183838B819C8159
:100FA000801B910B90878783CF0186CF853409F012
:100FB000EFCC2CE143E06FEF80E00E94860969E40A
:100FC00071E00E944F0D0E94330400E010E06FEFCB
:100FD000C8010E94CA1B0F5F1F4F0D39B1E01B07EC
:100FE000B1F780E090E0892B21F08BE090E00E9447
:100FF000000098E088E10FB6F894A895809360000F
:101000000FBE90936000FFCF8A3109F0CFCDC0CCE6
:101010002C960FB6F894DEBF0FBECDBFDF91CF91F7
:101020001F910F91FF90EF90DF90CF90BF90AF9006
:101030009F908F907F906F905F904F903F902F90F8
:1010400008953FB7F89480911A0390911B03A091E3
:101050001C03B0911D0326B5A89B05C02F3F19F0B6
:101060000196A11DB11D3FBFBA2FA92F982F882728
:10107000820F911DA11DB11DBC01CD0142E0660F83
:10108000771F881F991F4A95D1F708950895CF9229
:10109000DF92EF92FF920F931F93CF93DF936C0138
:1010A0007A018B01C0E0D0E0CE15DF0589F0D801D0
:1010B0006D918D01D601ED91FC910190F081E02DB3
:1010C000C6010995892B11F47E0102C02196ECCF4F
:1010D000C701DF91CF911F910F91FF90EF90DF90AB
:1010E000CF900895FC01538D448D252F30E0842F3F
:1010F00090E0821B930B541710F0CF960895019740
:101100000895FC01918D828D981761F0828DDF0129
:10111000A80FB11D5D968C91928D9F5F9F73928FEA
:1011200090E008958FEF9FEF0895FC01918D828DDF
:10113000981731F0828DE80FF11D858D90E00895AC
:101140008FEF9FEF0895FC01918D228D892F90E004
:10115000805C9F4F821B91098F739927089588ECBB
:1011600091E00E94A30821E0892B09F420E0822F5E
:101170000895FC01848DDF01A80FB11DA35ABF4F54
:101180002C91848D90E001968F739927848FA68986
:10119000B7892C93A089B1898C9180648C93938DAD
:1011A000848D981306C00288F389E02D80818F7D9D
:1011B00080830895EF92FF920F931F93CF93DF9355
:1011C000EC0181E0888F9B8D8C8D981305C0E88998
:1011D000F989808185FD24C0F62E0B8D10E00F5F0C
:1011E0001F4F0F731127E02E8C8DE8120CC00FB625
:1011F00007FCFACFE889F989808185FFF5CFCE0118
:101200000E94B908F1CF8B8DFE01E80FF11DE35A62
:10121000FF4FF0820B8FEA89FB898081806207C0D3
:10122000EE89FF896083E889F98980818064808301
:1012300081E090E0DF91CF911F910F91FF90EF90AF
:101240000895CF93DF93EC01888D8823C9F0EA8954
:10125000FB89808185FD05C0A889B9898C9186FDAF
:101260000FC00FB607FCF5CF808185FFF2CFA889AC
:10127000B9898C9185FFEDCFCE010E94B908E7CFE7
:10128000DF91CF91089580E090E0892B29F00E94B2
:10129000AF0881110C940000089508958FEF9FEF1F
:1012A00008958FEF9FEF08958091140390E091953A
:1012B000819591090895089580E090E008950E9435
:1012C0003B1CCF93DF9300D0CDB7DEB7CB01642FAB
:1012D00049835A830E941B0D4981842F5A81952F7F
:1012E0000F900F90DF91CF910895CF93DF931F92CE
:1012F000CDB7DEB7698361E0CE0101960E941B0D78
:1013000081E090E00F90DF91CF910895E6E8F2E060
:101310009091C50191838283668325834770848180
:10132000807E482B4483CF01089590E0FC01E05A71
:10133000FC4F2491FC01E45BFC4F8491882399F0DD
:1013400090E0880F991FFC01EE5BFC4FA591B491D2
:10135000FC01E85CFC4F859194918FB7F894EC9177
:10136000E22BEC938FBF08950F931F93CF93DF93DE
:10137000EC018C8182958695877091F44B8146951E
:101380004695469550E0BE01695F7F4F82E991E046
:101390000E94401CEB81E695E695E695F0E077C06B
:1013A000813031F48F814AE062E971E090E007C05A
:1013B000823041F44AE062E971E08F8198850E94B1
:1013C000DA1568C0833041F44AE062E971E08F8148
:1013D00098850E9433165EC0843051F46F81788501
:1013E00089859A852AE042E951E00E94E51552C0BC
:1013F000853051F46F81788589859A852AE042E9A4
:1014000051E00E94111646C0873071F42B852930B7
:1014100008F028E06F81788589859A8502E911E0D6
:1014200042E00E94751536C08630A1F520E0EB81C0
:10143000E695E695E6952E1738F5E22FF0E0AF0138
:10144000440F551FDA01AE56BE4FEC0FFD1F8781CA
:10145000082E000C990B34E0959587953A95E1F7A5
:101460008F708A3010F4805D01C0895C8C93DA0142
:10147000AD56BE4F87818F708A3010F4805D01C0F9
:10148000895C8C932F5FD3CFF0E0EE0FFF1FEE56F9
:10149000FE4F108282E991E0DF91CF911F910F9171
:1014A00008958091AB02829586958770813019F4FA
:1014B0008091AE020895811105C08EEA92E00E94EB
:1014C0009515089580E00895009769F0FC0101905A
:1014D0000020E9F73197AF01481B590BBC0188EC9C
:1014E00091E00C94470880E090E008958F929F92DD
:1014F000AF92BF92CF92DF92EF92FF926B017C018D
:101500000E9421084B015C01C114D104E104F104E3
:10151000F1F00E942108DC01CB0188199909AA0980
:10152000BB09883E9340A105B10570F321E0C21AC2
:10153000D108E108F10888EE880E83E0981EA11C0E
:10154000B11CC114D104E104F10419F7DDCFFF90FF
:10155000EF90DF90CF90BF90AF909F908F900895C5
:101560002FB7F894609116037091170380911803B8
:10157000909119032FBF0895CF92DF92EF92FF92BF
:10158000CF93DF93D82F0E94B00A6B017C0181E0DA
:10159000D11180E08093AC02C0E00E94B00AAB01A0
:1015A000BC014C195D096E097F09403D574061053A
:1015B000710580F4C1110EC0A8950E94830490911A
:1015C000AB029770933049F7C1E08091AC028D1364
:1015D000E3CFE3CF8C2FDF91CF91FF90EF90DF909F
:1015E000CF9008951F920F920FB60F9211242F9350
:1015F0003F938F939F93AF93BF93809116039091E6
:101600001703A0911803B09119033091150323E03B
:10161000230F2D3720F40196A11DB11D05C026E82A
:10162000230F0296A11DB11D20931503809316036D
:1016300090931703A0931803B093190380911A0392
:1016400090911B03A0911C03B0911D030196A11D55
:10165000B11D80931A0390931B03A0931C03B093B6
:101660001D03BF91AF919F918F913F912F910F904B
:101670000FBE0F901F9018951F920F920FB60F92EA
:1016800011242F933F934F935F936F937F938F9387
:101690009F93AF93BF93EF93FF93E0910201F0917B
:1016A00003010995FF91EF91BF91AF919F918F91A8
:1016B0007F916F915F914F913F912F910F900FBE4E
:1016C0000F901F9018951F920F920FB60F92112432
:1016D0002F933F934F935F936F937F938F939F933A
:1016E000AF93BF93EF93FF93E0910001F09101015D
:1016F0000995FF91EF91BF91AF919F918F917F914C
:101700006F915F914F913F912F910F900FBE0F906E
:101710001F9018951F920F920FB60F9211242F93BE
:101720003F934F935F936F937F938F939F93AF9369
:10173000BF93EF93FF9388EC91E00E94B908FF916B
:10174000EF91BF91AF919F918F917F916F915F9139
:101750004F913F912F910F900FBE0F901F901895B2
:101760001F920F920FB60F9211242F938F939F9376
:10177000EF93FF93E091D801F091D9018081E0913E
:10178000DE01F091DF0182FD12C090818091E101C4
:101790008F5F8F732091E201821751F0E091E10198
:1017A000F0E0E853FE4F958F8093E10101C0808106
:1017B000FF91EF919F918F912F910F900FBE0F90FE
:1017C0001F9018951F920F920FB60F9211242F930E
:1017D0003F934F935F936F937F938F939F93AF93B9
:1017E000BF93EF93FF938091B900887F803609F40F
:1017F0009CC068F5883209F45BC090F4803109F42C
:1018000054C038F4882309F4F6C0883009F44DC078
:10181000F6C0883109F44CC0803209F45DC0EFC0D5
:10182000803409F468C048F4803309F455C0883323
:1018300009F0E5C08093EE02D8C0803509F44FC0AE
:10184000883509F45DC0883409F0D9C0D6C088391C
:1018500009F4C7C0A8F4883709F467C038F488369B
:1018600009F463C0803709F460C0C9C0883809F43E
:10187000B8C0803909F45FC0803809F0C0C05BC0CF
:10188000803B09F486C038F4803A09F466C0883A8F
:1018900009F47FC0B4C0803C09F4A7C0883C09F4B7
:1018A000A4C0883B09F48AC0AAC08091130310C069
:1018B0009091120380911103981770F5E091120333
:1018C00081E08E0F80931203F0E0EF50FD4F808196
:1018D0008093BB0085EC86C08093EE028EC0E091C1
:1018E000120381E08E0F809312038091BB00F0E021
:1018F000EF50FD4F808390911203809111036EC0D1
:10190000E091120381E08E0F809312038091BB005F
:10191000F0E0EF50FD4F80838091F00281116DC0A7
:1019200081E08093EF0284EA61C083E080939101BB
:101930001092ED02CFCF8091ED02803208F051C0BD
:10194000E091ED0281E08E0F8093ED028091BB006B
:10195000F0E0E353FD4F8083BDCF85EC8093BC0066
:10196000109291018091ED02803230F4E091ED020D
:10197000F0E0E353FD4F10826091ED0270E0E091E2
:10198000CB02F091CC028DEC92E009951092ED0221
:1019900036C084E0809391011092CA0210929001A7
:1019A000E091C802F091C9020995809190018111DE
:1019B00005C081E08093900110927001E091CA020D
:1019C00081E08E0F8093CA02F0E0E059FE4F8081E3
:1019D0008093BB009091CA0280919001981708F4FF
:1019E00079CF85E88093BC000AC085EC8093BC0069
:1019F0001092910104C01092EE020E94110DFF910D
:101A0000EF91BF91AF919F918F917F916F915F9176
:101A10004F913F912F910F900FBE0F901F901895EF
:101A2000089585ED8093BC008091BC0084FDFCCFBF
:101A300010929101089540919001262F30E0240FDB
:101A4000311D21323105DCF4209191012430C9F49B
:101A5000FC0180E090E0861758F4309190012191CC
:101A6000DC01A059BE4FA30FB11D2C930196F3CFFB
:101A700080919001680F6093900180E0089581E06B
:101A8000089582E00895FC018381877088608383D4
:101A900084818F71806284836783CF0108950F935F
:101AA0001F93CF93DF93EC016115710561F0FB018A
:101AB00001900020E9F73197E61BF70BE931F105BA
:101AC00018F0E9E101C0E0E00E2F10E0C80123E0CA
:101AD000880F991F2A95E1F79B819770892B8B833B
:101AE0008C818F718C83EE2329F0A801CE0107969B
:101AF0000E94401CFE01E00FF11F1782CE01DF9112
:101B0000CF911F910F9108952BE043E06FEF80E09C
:101B10000E94860963E571E00E944F0D0E94330424
:101B20002CE043E06FEF80E00E9486096AE671E0F6
:101B30000E944F0D0E94330423E240E060E080E009
:101B40000E9486096FE671E00E944F0D0C943304E9
:101B5000CF9380E090E0892B21F08CE090E00E9410
:101B600000002FE043E06FEF80E00E9486096FE6FF
:101B700071E00E944F0D809189028770806180938F
:101B8000890280918A028F71806C80938A0281E041
:101B900080938D0210928E0286E892E00E943304B8
:101BA0008FE00E94BC0A21E140E06FEF80E00E94DC
:101BB000860968E671E00E944F0D0E943304C091CF
:101BC000C60126E043E06FEF80E00E9486096C2F9B
:101BD0000E94430D0E94330486E00E94BC0ACF910C
:101BE0000C94840DCF9380912D0381FD2FC00E9412
:101BF000A80D84E793E09F938F930E9458100F9055
:101C00000F9080E090E0892B21F089E090E00E9425
:101C1000000080912D03816080932D03C4E02AE1B0
:101C200043E06FEF80E00E94860962E00E94430D6E
:101C30000E9433048BE10E94BC0A811102C0C15092
:101C400071F780912D03826080932D03CF910895C9
:101C5000CF93DF931F92CDB7DEB7698320E041E0D9
:101C6000BE016F5F7F4F0E9409030F90DF91CF91FC
:101C7000089529986CE080E20C94280ECF92DF92B0
:101C8000EF92FF92CF9380E480937C0080917A0062
:101C9000806480937A0080917A0086FDFCCF609109
:101CA00078008091790070E0782B70933C0360930A
:101CB0003B03809168028770886280936802C091BC
:101CC0006902C06E072E000C880B990B0E946F1BD7
:101CD00060936C0270936D0280936E0290936F021A
:101CE00081E0809370028091C50180936602C07F7D
:101CF000C160C093690280912D0380FF05C085E615
:101D000092E00E94330408C08BEE93E09F938F9380
:101D10000E9458100F900F901F928FEF8F931F9279
:101D20008F931F928F931F928F931F921F921F92D8
:101D30001F9285E78F9380E38F938DE394E09F93C9
:101D40008F930E945810809138032DB73EB7205FC3
:101D50003F4F0FB6F8943EBF0FBE2DBF82FD26C089
:101D60008FE294E09F938F930E9458100E94B00AD4
:101D70006B017C010F900F9080E090E0DC012091DE
:101D8000380322FD45C0803137E29307A105B10534
:101D900008F03EC0A8950E9483040E94B00ADC01AE
:101DA000CB018C199D09AE09BF09E9CF80E3C82E8C
:101DB00085E7D82EE12CF12C82E194E09F938F935C
:101DC0000E9458100E94390E0F900F9080E090E012
:101DD000892B21F08EE090E00E94000088EC91E0D9
:101DE0000E942109809109018F3FA1F520E4C216CC
:101DF0002FE1D206E104F10468F189E090E00E944D
:101E0000C81380E4C81A8FE1D80AE108F108EACFC4
:101E1000803335E79307A105B10508F0F1C020E351
:101E2000C22E25E7D22EE12CF12CC81AD90AEA0AD3
:101E3000FB0AFF92EF92DF92CF928FE194E09F93A3
:101E40008F930E9458100F900F900F900F900F904B
:101E50000F90B2CF809109018F3F41F430EAC31651
:101E60003FE0D306E104F10408F071C0809109015C
:101E70008F3F41F480EDC81687E0D806E104F104F5
:101E800008F070C0809109018F3F41F428EEC2161E
:101E900023E0D206E104F10408F06FC0809109014B
:101EA0008F3F41F434EFC31631E0D306E104F1046F
:101EB00008F06EC0809109018F3F39F48AEFC8168F
:101EC000D104E104F10408F06EC0809109018F3F54
:101ED00039F42DE7C216D104E104F10408F06DC015
:101EE000809109018F3F39F430E4C316D104E10435
:101EF000F10408F06CC0809109018F3F39F480E251
:101F0000C816D104E104F10408F06BC08091090106
:101F10008F3F39F420E1C216D104E104F10408F046
:101F20006AC080E090E0892B21F08FE090E00E9471
:101F300000008FEF8F938F9382E094E09F938F93B5
:101F40000E9458100F900F900F900F9059C088E08A
:101F500090E00E94C81380EAC81A8FE0D80AE1080E
:101F6000F10884CF87E090E00E94C81320EDC21AE8
:101F700027E0D20AE108F10885CF86E090E00E94D0
:101F8000C81338EEC31A33E0D30AE108F10886CF4C
:101F900085E090E00E94C81384EFC81A81E0D80A57
:101FA000E108F10887CF84E090E00E94C8132AEF8F
:101FB000C21AD108E108F10888CF83E090E00E94BE
:101FC000C81338E7C31AD108E108F10889CF82E0C5
:101FD00090E00E94C8138CE3C81AD108E108F10808
:101FE0008ACF81E090E00E94C8132EE1C21AD10886
:101FF000E108F1088BCF80E090E00E94C81391CFF8
:10200000CF91FF90EF90DF90CF9008956FE080E246
:102010000E94280E609104016F3F19F08AE20E942D
:10202000280E299A089520E040E060E070E00C94CA
:1020300009030F931F930E94B00A0091300310917F
:1020400031032091320330913303601B710B820BFB
:10205000930B1F910F9108959C0180912E039091F5
:102060002F038217930751F0909138039F7190933B
:10207000380330932F0320932E0305C0809138033B
:10208000805E80933803E0912E03F0912F0301903E
:10209000F081E02D309709F009950E94B00A609315
:1020A0003003709331038093320390933303089588
:1020B000CF92DF92EF92FF920F931F93CF93DF9314
:1020C000CDB7DEB7C857D1090FB6F894DEBF0FBE43
:1020D000CDBF0E94B00A9B01AC0119A28E010F5D19
:1020E0001F4F8AE0C82ED12CE12CF12CCA01B90176
:1020F000A70196010E94131C605DF80162938F0195
:10210000211531054105510589F7CF010E94640A67
:102110008EE691E00E94640A9E012B573F4FCD57F7
:10212000DF4F48815981C358D04068E770E0CE0145
:1021300001960E944D16CE0101960E94640A88EC19
:1021400091E00E942109C858DF4F0FB6F894DEBF16
:102150000FBECDBFDF91CF911F910F91FF90EF90F8
:10216000DF90CF9008950F931F930E941910209134
:1021700039032077203729F000E117E220E030E032
:1021800004C000E61AEE20E030E006171707280723
:10219000390770F48AEA95E09F938F930E94581054
:1021A0000F900F9085E091E01F910F910C942C10EF
:1021B0001F910F91089580913903982F9077903750
:1021C00059F0982F92959F709F5F97709295907F8E
:1021D0008F78892B8093390380913903829587709A
:1021E0001F928F9389E995E09F938F930E945810D7
:1021F000809138038B7F8F7E809338030F900F90F0
:102200000F900F9080E090E0892B21F087E690E01E
:102210000E9400008BE895E09F938F930E945810D6
:102220000F900F900C94390E809139038F70863087
:1022300060F082E795E09F938F930E9458100F9073
:102240000F9081E291E00C942C1008958091C701C9
:102250001F928F938091C6011F928F938091C50129
:102260001F928F9383E595E09F938F930E94581060
:10227000809138038460809338038091390380789B
:1022800080933903E0912A03F0912B038DB79EB719
:1022900008960FB6F8949EBF0FBE8DBF309709F019
:1022A0000994089580913A038F3F79F10E94B00A12
:1022B0006093340370933503809336039093370310
:1022C00087E495E09F938F930E94581090913A0372
:1022D0008091C7010F900F909817A1F01F929F93C4
:1022E0001F928F938FE295E09F938F930E945810D7
:1022F00080913A038093C7010F900F900F900F9039
:102300000F900F908DE191E025C00E941910613D62
:1023100077408105910500F180913803803618F4EB
:1023200089E191E017C080E295E09F938F930E942E
:10233000581080913803877F809338030F900F9057
:1023400080E090E0892B21F08AE690E00E94000076
:1023500081E291E00C942C10089587E195E09F9321
:102360008F930E9458100F900F9080E090E0892B7F
:1023700021F088E090E00E9400008FEF80933A0304
:102380008091380388608093380328E143E06FEF41
:1023900080E00E94860961E00E94430D0C943B039B
:1023A0008091C5018F3F99F08CE095E09F938F93CA
:1023B0000E9458100F900F9080E090E0892B21F040
:1023C00087E090E00E94000089E191E020C00E9437
:1023D0001910613D774081059105D8F0809138034F
:1023E000803618F485E191E012C08EEF94E09F935F
:1023F0008F930E9458100F900F9080E090E0892BEF
:1024000021F089E690E00E94000081E191E00C94C7
:102410002C10089586EF94E09F938F930E9458109C
:102420000F900F908091C5018F3FE1F480E090E024
:10243000892B21F086E090E00E9400008AEE94E073
:102440009F938F930E94581023E043E06FEF80E04A
:102450000E9486096FE671E00E944F0D0F900F9069
:102460000C943B0308950E941910613D774081054B
:10247000910520F48091380381FF08958091C60171
:102480008F3FC1F08DED94E09F938F930E94581081
:10249000809138038E7F809338030F900F9080E0F7
:1024A00090E0892B21F085E090E00E94000085E11A
:1024B00091E021C080913803803658F489EB94E094
:1024C0009F938F930E9458100F900F9081E291E09C
:1024D00012C08DEC94E09F938F930E9458100F9040
:1024E0000F9080E090E0892B21F088E690E00E9438
:1024F000000081E191E00C942C108FEA94E09F930E
:102500008F930E9458100F900F9080E090E0892BDD
:1025100021F084E090E00E94000080913803897FE0
:102520008160809338038FEF8093C7018093C60149
:1025300027E043E06FEF0E9486096FE671E00E949A
:102540004F0D0C943B03CF93219A229ACFB7F89466
:1025500080913D03811163C086E593E0FC012491E5
:102560004AE653E0FA01649130E0220F331F2E5BFC
:102570003C4FF901A591B4912C91622309F040C020
:10258000E0E8F4E02491FA014491FC01949199234C
:10259000B9F1222339F1233091F038F42130A9F038
:1025A000223001F584B58F7D12C0273091F028309C
:1025B000A1F02430B9F4809180008F7D03C0809118
:1025C00080008F77809380000DC084B58F7784BDA5
:1025D00009C08091B0008F7703C08091B0008F7DDB
:1025E0008093B000E92FF0E0EE0FFF1FE85CFC4F96
:1025F000A591B4918FB7F8949C91492B4C938FBFC0
:102600008AE00E9495098CB580618CBD8CB5806490
:102610008CBD8DE00E9495098BE00E949509809108
:102620003D038F5F80933D03CFBF29982A9A6EE0C8
:1026300080E20E94280E65E070E080E090E00E9459
:10264000760A63E083E20E94280E6FE584E20E942E
:10265000280E6CE485E20E94280E67E286E20E9462
:10266000280E63E780E50E94280E66E08DE30E9455
:10267000280E21E041E060E070E086E00E9409035E
:10268000C82F21E041E060E070E085E00E9409038E
:102690008C3409F049C0C73209F046C062E082E2DA
:1026A0000E94280E60E081E20E94280E63E08CE325
:1026B0000E94280E8FEF80930C0120E045E06CE033
:1026C00071E08BE20E94090320E045E06CE071E0DC
:1026D0008AE20E94090320E045E06CE071E080E3BB
:1026E0000E94090382EE0E94131081EE0E941310D3
:1026F00060E787E20E94280E8EE994E09F938F9313
:102700000E94581080913803806180933803809133
:10271000C5010F900F908F3FC1F00E9442048111BC
:1027200014C081E191E013C08AE894E09F938F93F5
:102730000E9458100F900F9080E090E0892B89F351
:1027400087E690E00E940000ECCF81E291E0CF911B
:102750000C942C108CE694E09F938F930E94581059
:10276000E8E3F3E08081877F8F7E808310923403DB
:102770001092350310923603109237030F900F908A
:1027800043E050E060E070E085EC91E00C94AA1B1F
:1027900020917A002F7720937A00309160008A3060
:1027A0009105B1F083FD02C028E001C028E28770E6
:1027B000822B98E10FB6F894A895909360000FBE15
:1027C00080936000809160008065809360000BC002
:1027D0000FB6F894A895809160008861809360009E
:1027E000109260000FBE83B7817F846083BFF8942E
:1027F00083B7816083BF85B7806685BF8F7D85BFC6
:102800007894889583B78E7F83BFF894A89580913C
:1028100060008861809360003093600078948091BC
:102820007A00806880937A0008951F920F920FB605
:102830000F9211240F900FBE0F901F901895E8EC87
:10284000F1E01382128288EE93E0A0E0B0E084838E
:102850009583A683B78329E231E03183208325EC79
:1028600030E03587248724EC30E03787268720EC5A
:1028700030E0318B208B21EC30E0338B228B22EC4B
:1028800030E0358B248B26EC30E0378B268B118E95
:10289000128E138E148EEEE1F3E013821282848383
:1028A0009583A683B7838BE391E09183808387EA46
:1028B00092E00E94691486E892E00E94691485E61D
:1028C00092E00E946914E5E6F2E0168285E28583D3
:1028D0000895CF93DF93FC0110821182128214823B
:1028E00015821682DC0117968AE1ED0119928A950C
:1028F000E9F782E08383DF91CF910895789484B5DE
:10290000826084BD84B5816084BD85B5826085BDEB
:1029100085B5816085BD80916E00816080936E0079
:10292000109281008091810082608093810080916B
:10293000810081608093810080918000816080931C
:1029400080008091B10084608093B1008091B000DC
:1029500081608093B00080917A00846080937A00D7
:1029600080917A00826080937A0080917A00816001
:1029700080937A0080917A00806880937A00109228
:10298000C100A89580E090E0892B11F00E94000022
:10299000E091D801F091D90182E08083E091D401E7
:1029A000F091D5011082E091D601F091D70180E13C
:1029B00080831092E001E091DC01F091DD0186E07E
:1029C0008083E091DA01F091DB0180818061808376
:1029D000E091DA01F091DB01808188608083E091F1
:1029E000DA01F091DB01808180688083E091DA0177
:1029F000F091DB0180818F7D808383EC93E09F9356
:102A00008F930E94581080912D038D7F80932D030A
:102A10000F900F9080E090E0892B51F086EB93E0CF
:102A20009F938F930E9458100E9400000F900F9068
:102A300041E050E063E071E08CE293E00E94AA1B69
:102A40006FEF81E090E00E94CA1B809139038F787C
:102A50008093390310922F0310922E0385E091E0AA
:102A60000E942C1082EF9DE090932B0380932A0309
:102A70001F921F921F921F9281E893E09F938F9362
:102A80000E9458100E94B00A0F900F900F900F9064
:102A90000F900F900E94B00A0E948304A895809125
:102AA000380382FFF7CF89EA93E09F938F930E94C8
:102AB00058100F900F908091380382FB882780F97F
:102AC0001F928F9381E993E09F938F930E945810F8
:102AD000A8950F900F900F900F90A8950E948304D7
:102AE0000E943E0E0E944309F8CFEF920F931F936E
:102AF000CF93DF93E80147FD02C034E001C034E129
:102B0000E42F440FFF0BF7FF03C0F195E195F109A6
:102B1000E32E022F2E2FAE010E944B18CE01DF9123
:102B2000CF911F910F91EF900895FC01882799276D
:102B3000E89421912032E9F3293010F02E30C8F3C7
:102B40002B3241F02D3239F4689404C00E940916EA
:102B5000820F911D219120532A30C0F31EF49095CD
:102B600081959F4F08951F93FC0199278827BC01E9
:102B7000E89411911032E9F3193010F01E30C8F3C7
:102B80001B3251F01D3249F4689406C00E94F415BE
:102B9000610F711D811D911D119110531A30B0F3F9
:102BA0003EF490958095709561957F4F8F4F9F4F24
:102BB0001F910895BB274A3031F4992322F4BDE2D6
:102BC000909581959F4F0C943416BB272A3051F471
:102BD000992342F4BDE290958095709561957F4F61
:102BE0008F4F9F4F0C941216592F482F372F262F97
:102BF000660F771F881F991F660F771F881F991F01
:102C0000620F731F841F951F660F771F881F991F00
:102C100008957AE0979F902D879F802D910D112424
:102C20000895BB27FA01A62F62177105810591054A
:102C3000330B30FB66F0AA27660F771F881F991F9A
:102C4000AA1FA21710F0A21B63953850A9F7A05D28
:102C5000AA3308F0A95DA19336F7B111B1931082A0
:102C6000CA010C94C71ABB27FB015527AA27880F56
:102C7000991FAA1FA41710F0A41B83955051B9F7F0
:102C8000A05DAA3308F0A95DA193009779F7B1116F
:102C9000B1931192CB010C94C71AAEE0B0E0E3E51A
:102CA000F6E10C94EA1B8C01CA014EE04C831A83B6
:102CB000098377FF02C060E070E8FB013197FE8373
:102CC000ED83A901BC01CE0101960E9479164D81C8
:102CD0005E8157FD0AC02F813885421753070CF4D7
:102CE0009A01F801E20FF31F10822E96E4E00C9493
:102CF000061CACE0B0E0EFE7F6E10C94DC1B7C01D5
:102D00006B018A01FC0117821682838181FFBDC19C
:102D1000CE0101964C01F7019381F60193FD859157
:102D200093FF81916F01882309F4ABC1853239F497
:102D300093FD859193FF81916F01853229F4B7014D
:102D400090E00E94D71AE7CF512C312C20E020329E
:102D5000A0F48B3269F030F4803259F0833269F498
:102D600020612CC08D3239F0803339F4216026C0C7
:102D70002260246023C0286021C027FD27C030EDD9
:102D8000380F3A3078F426FF06C0FAE05F9E300D27
:102D90001124532E13C08AE0389E300D1124332E97
:102DA00020620CC08E3221F426FD6BC1206406C067
:102DB0008C3611F4206802C0883641F4F60193FD88
:102DC000859193FF81916F018111C1CF982F9F7DD4
:102DD0009554933028F40C5F1F4FFFE3F9830DC027
:102DE000833631F0833771F0833509F05BC022C040
:102DF000F801808189830E5F1F4F44244394512C36
:102E0000540115C03801F2E06F0E711CF801A0806A
:102E1000B18026FF03C0652D70E002C06FEF7FEF29
:102E2000C5012C870E94BC1A2C0183012C852F77A9
:102E3000222E17C03801F2E06F0E711CF801A0803D
:102E4000B18026FF03C0652D70E002C06FEF7FEFF9
:102E5000C5012C870E94B11A2C012C852068222ED6
:102E6000830123FC1BC0832D90E048165906B0F463
:102E7000B70180E290E00E94D71A3A94F4CFF501AE
:102E800027FC859127FE81915F01B70190E00E94A8
:102E9000D71A31103A94F1E04F1A510841145104F5
:102EA00071F7E5C0843611F0893639F5F80127FF4E
:102EB00007C060817181828193810C5F1F4F08C0C0
:102EC00060817181072E000C880B990B0E5F1F4FDC
:102ED0002F76722E97FF09C0909580957095619519
:102EE0007F4F8F4F9F4F2068722E2AE030E0A40161
:102EF0000E940F1BA82EA81844C0853729F42F7EE6
:102F0000B22E2AE030E025C0F22FF97FBF2E8F3697
:102F1000C1F018F4883579F0B4C0803719F08837DB
:102F200021F0AFC02F2F2061B22EB4FE0DC08B2D2B
:102F30008460B82E09C024FF0AC09F2F9660B92E66
:102F400006C028E030E005C020E130E002C020E10A
:102F500032E0F801B7FE07C0608171818281938100
:102F60000C5F1F4F06C06081718180E090E00E5FB2
:102F70001F4FA4010E940F1BA82EA818FB2DFF773E
:102F80007F2E76FE0BC0372D3E7FA51450F474FEC5
:102F90000AC072FC08C0372D3E7E05C0BA2C372D02
:102FA00003C0BA2C01C0B52C34FF0DC0FE01EA0DE0
:102FB000F11D8081803311F4397E09C032FF06C0D3
:102FC000B394B39404C0832F867809F0B39433FD8F
:102FD00013C030FF06C05A2CB31418F4530C5B18FE
:102FE000B32CB31468F4B70180E290E03C870E94F0
:102FF000D71AB3943C85F5CFB31410F43B1801C035
:10300000312C34FF12C0B70180E390E03C870E946E
:10301000D71A3C8532FF17C031FD03C088E790E026
:1030200002C088E590E0B7010CC0832F867859F084
:1030300031FF02C08BE201C080E237FD8DE2B701B3
:1030400090E00E94D71AA51438F4B70180E390E00D
:103050000E94D71A5A94F7CFAA94F401EA0DF11DF1
:103060008081B70190E00E94D71AA110F5CF3320DC
:1030700009F451CEB70180E290E00E94D71A3A9449
:10308000F6CFF7018681978102C08FEF9FEF2C96D4
:10309000E2E10C94F81B4F925F926F927F929F92A5
:1030A000AF92BF92CF92DF92EF92FF920F931F9356
:1030B000CF93DF93CDB7DEB729970FB6F894DEBF75
:1030C0000FBECDBF6A01122FB02E2BE3201720F0C8
:1030D000FF24F394F00E02C0BCE3FB2E0F2D27E07B
:1030E000AE014F5F5F4F0E94D919AC018981982FC3
:1030F0009970913031F0E1FC06C0E0FE06C090E22C
:1031000005C09DE203C09BE201C090E0EE2DE0719E
:1031100083FF3CC0911102C083E001C084E08117AD
:1031200018F4212F281B01C020E0E1110BC0F6018B
:10313000822F30E2882319F031938150FBCFC20EE9
:10314000D11C20E0992329F0D6019C93F6013196F9
:103150006F01C6010396E2FE0AC03EE4D6013C932D
:1031600041E411964C93119712963C9306C03EE6AB
:10317000F601308341E641833283FC01322F40E285
:10318000332309F442C041933150FACF82FF44C047
:10319000911102C083E001C084E0811718F4212F4F
:1031A000281B01C020E0E1110BC0F601822F30E2A4
:1031B000882319F031938150FBCFC20ED11C20E03F
:1031C000992329F0D6019C93F60131966F01C6012F
:1031D0000396E2FE0BC039E4D6013C933EE411961F
:1031E0003C93119736E412963C9307C039E6F601FA
:1031F00030833EE6318336E63283FC01322F40E2F3
:10320000332319F041933150FBCFFC01E20FF11D44
:1032100010828EEF9FEFB7C0F1E0911101C0F0E096
:103220006F2F70E01416150624F49A012F5F3F4F9C
:1032300002C021E030E0260F371FBB2029F06B2DA4
:1032400070E06F5F7F4F02C060E070E0260F371FB5
:10325000612F70E0261737071CF4121B212F01C0C5
:1032600020E03E2D387159F4D601322F60E233232D
:1032700019F06D933150FBCFC20ED11C20E0FF231B
:1032800031F0D6019C93B6016F5F7F4F6B01E11166
:103290000BC0F601922F30E3992319F0319391502E
:1032A000FBCFC20ED11C20E09F2D940F3A81782FC6
:1032B0007071A72E84FF03C0313309F491501916A1
:1032C00024F4993018F098E001C091E0E42F852FA4
:1032D00057FF02C0E0E080E06E2F782FE0E0F0E0E2
:1032E000AEE29A2E3A01691A71082A01461A570A63
:1032F0000B2D10E01195019511096F3F8FEF7807A5
:1033000029F4D6019C92C60101966C014617570715
:1033100084F0661677066CF47F01E40CF51CA1E0DE
:10332000B0E0AC0FBD1FEA0EFB1ED7011196BC909A
:1033300002C090E3B92E615071093196C601019621
:103340007C016017710724F0D601BC926C01D5CFC7
:103350006417750741F4363320F4353321F4A11096
:1033600002C081E3B82EF601B082F701822F90E20D
:10337000882319F091938150FBCFF701E20FF11DE3
:10338000108280E090E029960FB6F894DEBF0FBE61
:10339000CDBFDF91CF911F910F91FF90EF90DF9004
:1033A000CF90BF90AF909F907F906F905F904F9025
:1033B0000895283008F027E03327DA01990F311DEE
:1033C00087FD916000966105710539F432602E5FCA
:1033D0003D9330E32A95E1F708959F3F30F0803820
:1033E0007105610509F03C5F3C5F3D93913008F049
:1033F0008068911DDF93CF931F930F93FF92EF92FD
:10340000192F987F9695E92F96959695E90FFF27A6
:10341000EE53FF4F99273327EE24FF24A701E7013E
:1034200005900894079428F4360FE71EF81E491FEC
:10343000511D660F771F881F991F0694A1F70590ED
:10344000079428F4E70EF81E491F561FC11D770F79
:10345000881F991F661F0694A1F70590079428F40A
:10346000F80E491F561FC71FD11D880F991F661FD1
:10347000771F0694A1F70590079420F4490F561F73
:10348000C71FD81F990F661F771F881F0694A9F7BB
:1034900084911095177041F0D695C795579547952B
:1034A000F794E7941A95C1F7E8E6F0E06894159070
:1034B000159135916591959105907FE27395E1188D
:1034C000F10A430B560BC90BD009C0F7E10CF11EF2
:1034D000431F561FC91FD01D7EF4703311F48A9507
:1034E000E6CFE894015030F0080F0AF400270217E5
:1034F00008F4202F2395022F7A3328F079E37D9367
:103500002A95E9F710C07D932A9589F60694979538
:103510006795379517951794E118F10A430B560BE9
:10352000C90BD00998F023957E9173957A3308F0F2
:1035300070E37C932013B8F77E9170617D9330F037
:10354000839571E37D9370E32A95E1F71124EF9061
:10355000FF900F911F91CF91DF91992787FD909553
:103560000895FC010590615070400110D8F78095D6
:1035700090958E0F9F1F0895FC016150704001903F
:103580000110D8F7809590958E0F9F1F0895DC014C
:10359000FC01672F71917723E1F7329704C07C918A
:1035A0006D9370836291AE17BF07C8F308950F93B0
:1035B0001F93CF93DF93FB01238121FD03C08FEF86
:1035C0009FEF28C022FF16C0468157812481358194
:1035D0004217530744F4A081B1819D012F5F3F4FF3
:1035E000318320838C93268137812F5F3F4F378330
:1035F000268310C0EB01092F182F0084F185E02DE0
:103600000995892BE1F68E819F8101969F838E8398
:10361000812F902FDF91CF911F910F910895FA0183
:10362000AA27283051F1203181F1E8946F936E7F01
:103630006E5F7F4F8F4F9F4FAF4FB1E03ED0B4E0F2
:103640003CD0670F781F891F9A1FA11D680F791F33
:103650008A1F911DA11D6A0F711D811D911DA11D44
:1036600020D009F468943F912AE0269F1124301954
:10367000305D3193DEF6CF010895462F4770405DEF
:103680004193B3E00FD0C9F7F6CF462F4F70405D9E
:103690004A3318F0495D31FD4052419302D0A9F7F9
:1036A000EACFB4E0A6959795879577956795BA95F3
:1036B000C9F700976105710508959B01AC010A2EB9
:1036C00006945795479537952795BA95C9F7620F90
:1036D000731F841F951FA01D0895E89409C097FBD0
:1036E0003EF490958095709561957F4F8F4F9F4FD9
:1036F0009923A9F0F92F96E9BB279395F69587951D
:1037000077956795B795F111F8CFFAF4BB0F11F4DF
:1037100060FF1BC06F5F7F4F8F4F9F4F16C0882386
:1037200011F096E911C0772321F09EE8872F762FBC
:1037300005C0662371F096E8862F70E060E02AF0FD
:103740009A95660F771F881FDAF7880F96958795E9
:1037500097F90895DC01CB01FC01F999FECF06C071
:10376000F2BDE1BDF89A319600B40D92415050403F
:10377000B8F70895DC01A40FB51F4150504048F040
:10378000CB01840F951F2E910E94CB1B41505040BE
:10379000D0F70895262FF999FECF92BD81BDF89AF2
:1037A000019700B4021639F01FBA20BD0FB6F89485
:1037B000FA9AF99A0FBE08952F923F924F925F9214
:1037C0006F927F928F929F92AF92BF92CF92DF9231
:1037D000EF92FF920F931F93CF93DF93CDB7DEB796
:1037E000CA1BDB0B0FB6F894DEBF0FBECDBF09942A
:1037F0002A88398848885F846E847D848C849B8481
:10380000AA84B984C884DF80EE80FD800C811B818E
:10381000AA81B981CE0FD11D0FB6F894DEBF0FBEBD
:10382000CDBFED010895A1E21A2EAA1BBB1BFD011D
:103830000DC0AA1FBB1FEE1FFF1FA217B307E4078F
:10384000F50720F0A21BB30BE40BF50B661F771FE7
:10385000881F991F1A9469F76095709580959095C7
:103860009B01AC01BD01CF010895EE0FFF1F059034
:10387000F491E02D099481E090E0F8940C944F1CB1
:10388000FB01DC014150504048F001900D920020B6
:10389000C9F701C01D9241505040E0F70895F894D7
:0238A000FFCF58
:1038A20046084608FFAA13A312FFFFFF00FCE1A887
:1038B200A8DB10B3100A12D011AD11521126111447
:1038C200117D12331200000000DA08470872082145
:1038D20009A3088108950800000000750961095CC8
:1038E200094D09540951094E094F4B004E41434BB2
:1038F200002100536F696C204D6F69737475726596
:103902002053656E736F7200322E312E310020000B
:00000001FF
